:100000000C945D000C94B7020C9490020C94850043
:100010000C9485000C9485000C9485000C9485004C
:100020000C9485000C9485000C9485000C9485003C
:100030000C9485000C9485000C9485000C9485002C
:100040000C9446020C9485000C9404030C94DE027C
:100050000C9485000C9485000C9485000C9485000C
:100060000C9485000C9485000000000024002700FB
:100070002A0000000000250028002B0004040404CE
:100080000404040402020202020203030303030342
:10009000010204081020408001020408102001021F
:1000A00004081020000000080002010000030407FB
:1000B0000000000000000000A40411241FBECFEFC8
:1000C000D8E0DEBFCDBF11E0A0E0B1E0E2EBF9E0A7
:1000D00002C005900D92AA31B107D9F721E0AAE13B
:1000E000B1E001C01D92A73CB207E1F710E0CDE5F9
:1000F000D0E004C02197FE010E94D104CC35D10785
:10010000C9F70E9436030C94D7040C940000E6EA69
:10011000F0E02491E2E9F0E09491EEE7F0E0E49180
:10012000EE23C9F0222339F0233001F1A8F4213065
:1001300019F1223029F1F0E0EE0FFF1FEE58FF4FCA
:10014000A591B4912FB7F894EC91811126C09095A8
:100150009E239C932FBF08952730A9F02830C9F023
:10016000243049F7209180002F7D03C0209180002A
:100170002F7720938000DFCF24B52F7724BDDBCFEE
:1001800024B52F7DFBCF2091B0002F772093B000B6
:10019000D2CF2091B0002F7DF9CF9E2BDACF3FB781
:1001A000F8948091C3019091C401A091C501B091D0
:1001B000C60126B5A89B05C02F3F19F00196A11DC9
:1001C000B11D3FBFBA2FA92F982F8827BC01CD01A1
:1001D000620F711D811D911D42E0660F771F881F00
:1001E000991F4A95D1F708958F929F92AF92BF922F
:1001F000CF92DF92EF92FF926B017C010E94CF00C1
:100200004B015C01C114D104E104F104B9F00E9476
:10021000CF00681979098A099B09683E73408105F6
:10022000910580F321E0C21AD108E108F10888EEB7
:10023000880E83E0981EA11CB11CE4CFFF90EF90C4
:10024000DF90CF90BF90AF909F908F9008950895CA
:10025000AF92BF92CF92DF92EF92FF920F931F93D4
:10026000CF93DF936C017B018B01040F151FEB0112
:100270005E01AE18BF08C017D10759F06991D601C9
:10028000ED91FC910190F081E02DC6010995892B3B
:1002900079F7C501DF91CF911F910F91FF90EF90FA
:1002A000DF90CF90BF90AF900895FC01538D448DA7
:1002B000252F30E0842F90E0821B930B541710F011
:1002C000CF96089501970895FC01918D828D98171E
:1002D00061F0A28DAE0FBF2FB11D5D968C91928DF6
:1002E0009F5F9F73928F90E008958FEF9FEF089527
:1002F000FC01918D828D981731F0828DE80FF11DF0
:10030000858D90E008958FEF9FEF0895FC01918D0A
:10031000228D892F90E0805C9F4F821B91098F7303
:100320009927089581E291E00E94860121E0892BBE
:1003300009F420E0822F089580E090E0892B29F0D5
:100340000E94920181110C9400000895FC01A48D7B
:10035000A80FB92FB11DA35ABF4F2C91848D90E0E7
:1003600001968F739927848FA689B7892C93A089CA
:10037000B1898C91837080648C93938D848D981354
:1003800006C00288F389E02D80818F7D80830895E7
:10039000EF92FF920F931F93CF93DF93EC0181E0D5
:1003A000888F9B8D8C8D98131AC0E889F98980817C
:1003B00085FF15C09FB7F894EE89FF896083E889AF
:1003C000F98980818370806480839FBF81E090E0A1
:1003D000DF91CF911F910F91FF90EF900895F62E2E
:1003E0000B8D10E00F5F1F4F0F731127E02E8C8DC8
:1003F0008E110CC00FB607FCFACFE889F98980810D
:1004000085FFF5CFCE010E94A601F1CFEB8DEC0F59
:10041000FD2FF11DE35AFF4FF0829FB7F8940B8F29
:10042000EA89FB8980818062CFCFCF93DF93EC0193
:10043000888D8823B9F0AA89BB89E889F9898C91CC
:1004400085FD03C0808186FD0DC00FB607FCF7CF88
:100450008C9185FFF2CF808185FFEDCFCE010E9488
:10046000A601E9CFDF91CF91089580911A018823E9
:1004700061F080912001811108C063E581E291E083
:100480000E94C80181E08093200108951F920F927D
:100490000FB60F9211242F933F938F939F93AF9397
:1004A000BF938091BF019091C001A091C101B09113
:1004B000C2013091BE0123E0230F2D3758F501967C
:1004C000A11DB11D2093BE018093BF019093C00177
:1004D000A093C101B093C2018091C3019091C40166
:1004E000A091C501B091C6010196A11DB11D8093D7
:1004F000C3019093C401A093C501B093C601BF91FD
:10050000AF919F918F913F912F910F900FBE0F90C0
:100510001F90189526E8230F0296A11DB11DD2CF7A
:100520001F920F920FB60F9211242F933F934F9368
:100530005F936F937F938F939F93AF93BF93EF934B
:10054000FF93E0910201F09103010995FF91EF9172
:10055000BF91AF919F918F917F916F915F914F91DB
:100560003F912F910F900FBE0F901F9018951F92E3
:100570000F920FB60F9211242F933F934F935F93D7
:100580006F937F938F939F93AF93BF93EF93FF935B
:10059000E0910001F09101010995FF91EF91BF9168
:1005A000AF919F918F917F916F915F914F913F910B
:1005B0002F910F900FBE0F901F9018951F920F92C2
:1005C0000FB60F9211242F933F934F935F936F9326
:1005D0007F938F939F93AF93BF93EF93FF9381E2AA
:1005E00091E00E94A601FF91EF91BF91AF919F9181
:1005F0008F917F916F915F914F913F912F910F90CC
:100600000FBE0F901F9018951F920F920FB60F926A
:1006100011242F938F939F93EF93FF93E0913101D8
:10062000F09132018081E0913701F091380182FD33
:100630001BC0908180913A018F5F8F7320913B01A5
:10064000821741F0E0913A01F0E0EF5DFE4F958FA7
:1006500080933A01FF91EF919F918F912F910F908D
:100660000FBE0F901F9018958081F4CF789484B5B9
:10067000826084BD84B5816084BD85B5826085BD9E
:1006800085B5816085BD80916E00816080936E002C
:10069000109281008091810082608093810080911E
:1006A00081008160809381008091800081608093CF
:1006B00080008091B10084608093B1008091B0008F
:1006C00081608093B00080917A00846080937A008A
:1006D00080917A00826080937A0080917A008160B4
:1006E00080937A0080917A00806880937A001092DB
:1006F000C100E0913101F091320182E08083E0910C
:100700002D01F0912E011082E0912F01F091300126
:1007100080E1808310923901E0913501F09136013A
:1007200086E08083E0913301F09134018081806123
:100730008083E0913301F09134018081886080836F
:10074000E0913301F0913401808180688083E091F1
:100750003301F091340180818F7D8083E3E9F0E003
:100760002491EFE7F0E084918823C9F090E0880FAE
:10077000991FFC01E859FF4F45915491FC01EE5837
:10078000FF4FA591B4919FB7F894FA013081822F61
:10079000809583238083EC91E22BEC939FBFE2E969
:1007A000F0E02491EEE7F0E08491882399F090E066
:1007B000880F991FFC01E859FF4FA591B491FC01E6
:1007C000EE58FF4F859194918FB7F894EC91E22BFE
:1007D000EC938FBF85E392E0909303018093020135
:1007E00080916900837F886080936900E99A03E0C3
:1007F00010E081E00E948700609104017091050182
:1008000080910601909107010E94F40080E00E940F
:10081000870064E670E080E090E00E94F400015000
:10082000110939F762E581E291E00E94C80100E018
:1008300010E081E291E00E9486011816190624F565
:1008400081E291E00E946401843509F056C0109263
:10085000200181E00E9487002FB7F8948091BF01AA
:100860009091C001A091C101B091C2012FBF8093AE
:100870001C0190931D01A0931E01B0931F0181E004
:1008800080931B0180931A0180911B01882349F1F9
:100890002FB7F8948091BF019091C001A091C10140
:1008A000B091C2012FBF40911C0150911D01609178
:1008B0001E0170911F01841B950BA60BB70B409175
:1008C00004015091050160910601709107018417A0
:1008D0009507A607B70728F080E00E9487001092CE
:1008E0001B010115110509F4A4CF0E949201882370
:1008F00009F49FCF0E9400009CCF803529F681E249
:1009000091E00E94860102970CF4BECF81E291E053
:100910000E946401F82E81E291E00E946401F0E0FF
:100920008F2B9F29092E000CAA0BBB0B809304016F
:1009300090930501A0930601B093070161E481E261
:1009400091E00E94C801A0CFE1E2F1E0138212829F
:1009500088EE93E0A0E0B0E084839583A683B7831C
:100960008CE091E09183808385EC90E0958784878B
:1009700084EC90E09787868780EC90E0918B808B69
:1009800081EC90E0938B828B82EC90E0958B848B52
:1009900086EC90E0978B868B118E128E138E148EC0
:1009A0000895EE0FFF1F0590F491E02D0994F8943F
:0209B000FFCF77
:1009B200270127016400000000000000C80128018F
:0A09C2005501150286016401780159
:00000001FF
